{
  "contractName": "Hasher",
  "abi": [
    {
      "inputs": [
        {
          "internalType": "uint8",
          "name": "_c",
          "type": "uint8"
        },
        {
          "internalType": "uint256",
          "name": "_salt",
          "type": "uint256"
        }
      ],
      "name": "hash",
      "outputs": [
        {
          "internalType": "bytes32",
          "name": "",
          "type": "bytes32"
        }
      ],
      "stateMutability": "pure",
      "type": "function"
    }
  ],
  "bytecode": "0x608060405234801561001057600080fd5b50610234806100206000396000f3fe608060405234801561001057600080fd5b506004361061002b5760003560e01c806367ef4c1314610030575b600080fd5b61004a60048036038101906100459190610107565b610060565b6040516100579190610160565b60405180910390f35b600082826040516020016100759291906101d2565b60405160208183030381529060405280519060200120905092915050565b600080fd5b600060ff82169050919050565b6100ae81610098565b81146100b957600080fd5b50565b6000813590506100cb816100a5565b92915050565b6000819050919050565b6100e4816100d1565b81146100ef57600080fd5b50565b600081359050610101816100db565b92915050565b6000806040838503121561011e5761011d610093565b5b600061012c858286016100bc565b925050602061013d858286016100f2565b9150509250929050565b6000819050919050565b61015a81610147565b82525050565b60006020820190506101756000830184610151565b92915050565b60008160f81b9050919050565b60006101938261017b565b9050919050565b6101ab6101a682610098565b610188565b82525050565b6000819050919050565b6101cc6101c7826100d1565b6101b1565b82525050565b60006101de828561019a565b6001820191506101ee82846101bb565b602082019150819050939250505056fea26469706673582212201b23aba0a5bbe8905308c1162bc34a43985dc2256e5203cd37afa9443a53c28964736f6c634300080b0033",
  "immutableReferences": {},
  "source": "/**\n *  @title Rock Paper Scissors Lizard Spock\n *  @author Clment Lesaege - <clement@lesaege.com>\n */\n\n/* This program is free software. It comes without any warranty, to\nthe extent permitted by applicable law. You can redistribute it\nand/or modify it under the terms of the Do What The Fuck You Want\nTo Public License, Version 2, as published by Sam Hocevar. See\nhttp://www.wtfpl.net/ for more details. */\n\n// SPDX-License-Identifier: MIT\npragma solidity >=0.4.22 <0.9.0;\n\ncontract RPS{\n    address payable public j1; // The first player creating the contract.\n    address payable public j2; // The second player.\n    enum Move {Null, Rock, Paper, Scissors, Spock, Lizard} // Possible moves. Note that if the parity of the moves is the same the lower one wins, otherwise the higher one.\n    bytes32 public c1Hash; // Commitment of j1.\n    Move public c2; // Move of j2. Move.Null before he played.\n    uint256 public stake; // Amout bet by each party.\n    uint256 public TIMEOUT = 5 minutes; // If some party takes more than TIMEOUT to respond, the other can call TIMEOUT to win.\n    uint256 public lastAction; // The time of the last action. Usefull to determine if someone has timed out.\n\n    /** @dev Constructor. Must send the amount at stake when creating the contract. Note that the move and salt must be saved.\n     *  @param _c1Hash Must be equal to keccak256(c1,salt) where c1 is the move of the j1.\n     */\n    constructor(bytes32 _c1Hash,address payable _j2) payable {\n        stake = msg.value; // La mise correspond  la quantit d'ethers envoys.\n        j1=payable(msg.sender);\n        j2=_j2;\n        c1Hash=_c1Hash;\n        lastAction=block.timestamp;\n    }\n\n    /** @dev To be called by j2 and provided stake.\n     *  @param _c2 The move submitted by j2.\n     */\n    function play(Move _c2) public payable {\n        require(c2==Move.Null); // J2 has not played yet.\n        require(msg.value==stake); // J2 has paid the stake.\n        require(msg.sender==j2); // Only j2 can call this function.\n\n        c2=_c2;\n        lastAction=block.timestamp;\n    }\n\n    /** @dev To be called by j1. Reveal the move and send the ETH to the winning party or split them.\n     *  @param _c1 The move played by j1.\n     *  @param _salt The salt used when submitting the commitment when the constructor was called.\n     */\n     function solve(Move _c1, uint256 _salt) public payable {\n        require(c2!=Move.Null); // J2 must have played.\n        require(msg.sender==j1); // J1 can call this.\n        require(keccak256(abi.encodePacked(_c1,_salt))==c1Hash); // Verify the value is the commited one.\n\n        // If j1 or j2 throws at fallback it won't get funds and that is his fault.\n        // Despite what the warnings say, we should not use transfer as a throwing fallback would be able to block the contract, in case of tie.\n        if (win(_c1,c2))\n            j1.send(2*stake);\n        else if (win(c2,_c1))\n            j2.send(2*stake);\n        else {\n            j1.send(stake);\n            j2.send(stake);\n        }\n        stake=0;\n    }\n\n    /** @dev Let j2 get the funds back if j1 did not play.\n     */\n     function j1Timeout() public {\n        require(c2!=Move.Null); // J2 already played.\n        require(block.timestamp > lastAction + TIMEOUT); // Timeout time has passed.\n        j2.send(2*stake);\n        stake=0;\n    }\n\n    /** @dev Let j1 take back the funds if j2 never play.\n     */\n     function j2Timeout() public {\n        require(c2==Move.Null); // J2 has not played.\n        require(block.timestamp > lastAction + TIMEOUT); // Timeout time has passed.\n        j1.send(stake);\n        stake=0;\n    }\n\n    /** @dev Is this move winning over the other.\n     *  @param _c1 The first move.\n     *  @param _c2 The move the first move is considered again.\n     *  @return w True if c1 beats c2. False if c1 is beaten by c2 or in case of tie.\n     */\n     function win(Move _c1, Move _c2) private pure returns (bool w) {\n        if (_c1 == _c2)\n            return false; // They played the same so no winner.\n        else if (_c1==Move.Null)\n            return false; // They did not play.\n        else if (uint(_c1)%2==uint(_c2)%2)\n            return (_c1<_c2);\n        else\n            return (_c1>_c2);\n    }\n\n}\n\ncontract Hasher{\n    /** @dev Give the commitement. Must only be called locally.\n     *  @param _c The move.\n     *  @param _salt The salt to increase entropy.\n     */\n    function hash(uint8 _c, uint256 _salt) public pure returns(bytes32) {\n        return keccak256(abi.encodePacked(_c,_salt));\n    }\n}",
  "sourcePath": "/Users/tomislavkostantinov/rpsls/contracts/RPS.sol",
  "compiler": {
    "name": "solc",
    "version": "0.8.11+commit.d7f03943.Emscripten.clang"
  },
  "schemaVersion": "3.4.4",
  "updatedAt": "2022-02-16T03:01:50.120Z",
  "devdoc": {
    "kind": "dev",
    "methods": {
      "hash(uint8,uint256)": {
        "details": "Give the commitement. Must only be called locally.",
        "params": {
          "_c": "The move.",
          "_salt": "The salt to increase entropy."
        }
      }
    },
    "version": 1
  },
  "userdoc": {
    "kind": "user",
    "methods": {},
    "version": 1
  }
}