{
  "contractName": "RPS",
  "abi": [
    {
      "inputs": [
        {
          "internalType": "bytes32",
          "name": "_c1Hash",
          "type": "bytes32"
        },
        {
          "internalType": "address payable",
          "name": "_j2",
          "type": "address"
        }
      ],
      "stateMutability": "payable",
      "type": "constructor"
    },
    {
      "inputs": [],
      "name": "TIMEOUT",
      "outputs": [
        {
          "internalType": "uint256",
          "name": "",
          "type": "uint256"
        }
      ],
      "stateMutability": "view",
      "type": "function"
    },
    {
      "inputs": [],
      "name": "c1Hash",
      "outputs": [
        {
          "internalType": "bytes32",
          "name": "",
          "type": "bytes32"
        }
      ],
      "stateMutability": "view",
      "type": "function"
    },
    {
      "inputs": [],
      "name": "c2",
      "outputs": [
        {
          "internalType": "enum RPS.Move",
          "name": "",
          "type": "uint8"
        }
      ],
      "stateMutability": "view",
      "type": "function"
    },
    {
      "inputs": [],
      "name": "j1",
      "outputs": [
        {
          "internalType": "address payable",
          "name": "",
          "type": "address"
        }
      ],
      "stateMutability": "view",
      "type": "function"
    },
    {
      "inputs": [],
      "name": "j2",
      "outputs": [
        {
          "internalType": "address payable",
          "name": "",
          "type": "address"
        }
      ],
      "stateMutability": "view",
      "type": "function"
    },
    {
      "inputs": [],
      "name": "lastAction",
      "outputs": [
        {
          "internalType": "uint256",
          "name": "",
          "type": "uint256"
        }
      ],
      "stateMutability": "view",
      "type": "function"
    },
    {
      "inputs": [],
      "name": "stake",
      "outputs": [
        {
          "internalType": "uint256",
          "name": "",
          "type": "uint256"
        }
      ],
      "stateMutability": "view",
      "type": "function"
    },
    {
      "inputs": [
        {
          "internalType": "enum RPS.Move",
          "name": "_c2",
          "type": "uint8"
        }
      ],
      "name": "play",
      "outputs": [],
      "stateMutability": "payable",
      "type": "function"
    },
    {
      "inputs": [
        {
          "internalType": "enum RPS.Move",
          "name": "_c1",
          "type": "uint8"
        },
        {
          "internalType": "uint256",
          "name": "_salt",
          "type": "uint256"
        }
      ],
      "name": "solve",
      "outputs": [],
      "stateMutability": "payable",
      "type": "function"
    },
    {
      "inputs": [],
      "name": "j1Timeout",
      "outputs": [],
      "stateMutability": "nonpayable",
      "type": "function"
    },
    {
      "inputs": [],
      "name": "j2Timeout",
      "outputs": [],
      "stateMutability": "nonpayable",
      "type": "function"
    }
  ],
  "bytecode": "0x60806040526005805560405162000e9438038062000e9483398181016040528101906200002d919062000170565b34600481905550336000806101000a81548173ffffffffffffffffffffffffffffffffffffffff021916908373ffffffffffffffffffffffffffffffffffffffff16021790555080600160006101000a81548173ffffffffffffffffffffffffffffffffffffffff021916908373ffffffffffffffffffffffffffffffffffffffff16021790555081600281905550426006819055505050620001b7565b600080fd5b6000819050919050565b620000e581620000d0565b8114620000f157600080fd5b50565b6000815190506200010581620000da565b92915050565b600073ffffffffffffffffffffffffffffffffffffffff82169050919050565b600062000138826200010b565b9050919050565b6200014a816200012b565b81146200015657600080fd5b50565b6000815190506200016a816200013f565b92915050565b600080604083850312156200018a5762000189620000cb565b5b60006200019a85828601620000f4565b9250506020620001ad8582860162000159565b9150509250929050565b610ccd80620001c76000396000f3fe60806040526004361061009c5760003560e01c806380985af91161006457806380985af91461015557806389f71d5314610180578063a5ddec7c146101ab578063c37597c6146101c7578063c8391142146101f2578063f56f48f2146102095761009c565b8063294914a4146100a15780633a4b66f1146100b857806348e257cb146100e35780634d03e3d21461010e57806353a04b0514610139575b600080fd5b3480156100ad57600080fd5b506100b6610234565b005b3480156100c457600080fd5b506100cd6102f1565b6040516100da91906108d5565b60405180910390f35b3480156100ef57600080fd5b506100f86102f7565b6040516101059190610967565b60405180910390f35b34801561011a57600080fd5b5061012361030a565b604051610130919061099b565b60405180910390f35b610153600480360381019061014e91906109e0565b610310565b005b34801561016157600080fd5b5061016a6103ec565b6040516101779190610a4e565b60405180910390f35b34801561018c57600080fd5b50610195610412565b6040516101a291906108d5565b60405180910390f35b6101c560048036038101906101c09190610a95565b610418565b005b3480156101d357600080fd5b506101dc6106b7565b6040516101e99190610a4e565b60405180910390f35b3480156101fe57600080fd5b506102076106db565b005b34801561021557600080fd5b5061021e6107a7565b60405161022b91906108d5565b60405180910390f35b60006005811115610248576102476108f0565b5b600360009054906101000a900460ff16600581111561026a576102696108f0565b5b1461027457600080fd5b6005546006546102849190610b04565b421161028f57600080fd5b60008054906101000a900473ffffffffffffffffffffffffffffffffffffffff1673ffffffffffffffffffffffffffffffffffffffff166108fc6004549081150290604051600060405180830381858888f19350505050506000600481905550565b60045481565b600360009054906101000a900460ff1681565b60025481565b60006005811115610324576103236108f0565b5b600360009054906101000a900460ff166005811115610346576103456108f0565b5b1461035057600080fd5b600454341461035e57600080fd5b600160009054906101000a900473ffffffffffffffffffffffffffffffffffffffff1673ffffffffffffffffffffffffffffffffffffffff163373ffffffffffffffffffffffffffffffffffffffff16146103b857600080fd5b80600360006101000a81548160ff021916908360058111156103dd576103dc6108f0565b5b02179055504260068190555050565b600160009054906101000a900473ffffffffffffffffffffffffffffffffffffffff1681565b60065481565b6000600581111561042c5761042b6108f0565b5b600360009054906101000a900460ff16600581111561044e5761044d6108f0565b5b141561045957600080fd5b60008054906101000a900473ffffffffffffffffffffffffffffffffffffffff1673ffffffffffffffffffffffffffffffffffffffff163373ffffffffffffffffffffffffffffffffffffffff16146104b157600080fd5b60025482826040516020016104c7929190610bb1565b60405160208183030381529060405280519060200120146104e757600080fd5b61050082600360009054906101000a900460ff166107ad565b1561056e5760008054906101000a900473ffffffffffffffffffffffffffffffffffffffff1673ffffffffffffffffffffffffffffffffffffffff166108fc600454600261054e9190610bdd565b9081150290604051600060405180830381858888f19350505050506106ab565b610587600360009054906101000a900460ff16836107ad565b156105f757600160009054906101000a900473ffffffffffffffffffffffffffffffffffffffff1673ffffffffffffffffffffffffffffffffffffffff166108fc60045460026105d79190610bdd565b9081150290604051600060405180830381858888f19350505050506106aa565b60008054906101000a900473ffffffffffffffffffffffffffffffffffffffff1673ffffffffffffffffffffffffffffffffffffffff166108fc6004549081150290604051600060405180830381858888f1935050505050600160009054906101000a900473ffffffffffffffffffffffffffffffffffffffff1673ffffffffffffffffffffffffffffffffffffffff166108fc6004549081150290604051600060405180830381858888f19350505050505b5b60006004819055505050565b60008054906101000a900473ffffffffffffffffffffffffffffffffffffffff1681565b600060058111156106ef576106ee6108f0565b5b600360009054906101000a900460ff166005811115610711576107106108f0565b5b141561071c57600080fd5b60055460065461072c9190610b04565b421161073757600080fd5b600160009054906101000a900473ffffffffffffffffffffffffffffffffffffffff1673ffffffffffffffffffffffffffffffffffffffff166108fc60045460026107829190610bdd565b9081150290604051600060405180830381858888f19350505050506000600481905550565b60055481565b60008160058111156107c2576107c16108f0565b5b8360058111156107d5576107d46108f0565b5b14156107e457600090506108b6565b600060058111156107f8576107f76108f0565b5b83600581111561080b5761080a6108f0565b5b141561081a57600090506108b6565b600282600581111561082f5761082e6108f0565b5b6108399190610c66565b600284600581111561084e5761084d6108f0565b5b6108589190610c66565b141561088c57816005811115610871576108706108f0565b5b836005811115610884576108836108f0565b5b1090506108b6565b81600581111561089f5761089e6108f0565b5b8360058111156108b2576108b16108f0565b5b1190505b92915050565b6000819050919050565b6108cf816108bc565b82525050565b60006020820190506108ea60008301846108c6565b92915050565b7f4e487b7100000000000000000000000000000000000000000000000000000000600052602160045260246000fd5b600681106109305761092f6108f0565b5b50565b60008190506109418261091f565b919050565b600061095182610933565b9050919050565b61096181610946565b82525050565b600060208201905061097c6000830184610958565b92915050565b6000819050919050565b61099581610982565b82525050565b60006020820190506109b0600083018461098c565b92915050565b600080fd5b600681106109c857600080fd5b50565b6000813590506109da816109bb565b92915050565b6000602082840312156109f6576109f56109b6565b5b6000610a04848285016109cb565b91505092915050565b600073ffffffffffffffffffffffffffffffffffffffff82169050919050565b6000610a3882610a0d565b9050919050565b610a4881610a2d565b82525050565b6000602082019050610a636000830184610a3f565b92915050565b610a72816108bc565b8114610a7d57600080fd5b50565b600081359050610a8f81610a69565b92915050565b60008060408385031215610aac57610aab6109b6565b5b6000610aba858286016109cb565b9250506020610acb85828601610a80565b9150509250929050565b7f4e487b7100000000000000000000000000000000000000000000000000000000600052601160045260246000fd5b6000610b0f826108bc565b9150610b1a836108bc565b9250827fffffffffffffffffffffffffffffffffffffffffffffffffffffffffffffffff03821115610b4f57610b4e610ad5565b5b828201905092915050565b60008160f81b9050919050565b6000610b7282610b5a565b9050919050565b610b8a610b8582610946565b610b67565b82525050565b6000819050919050565b610bab610ba6826108bc565b610b90565b82525050565b6000610bbd8285610b79565b600182019150610bcd8284610b9a565b6020820191508190509392505050565b6000610be8826108bc565b9150610bf3836108bc565b9250817fffffffffffffffffffffffffffffffffffffffffffffffffffffffffffffffff0483118215151615610c2c57610c2b610ad5565b5b828202905092915050565b7f4e487b7100000000000000000000000000000000000000000000000000000000600052601260045260246000fd5b6000610c71826108bc565b9150610c7c836108bc565b925082610c8c57610c8b610c37565b5b82820690509291505056fea26469706673582212203ae0c66e6d58d9a7a0c24eafac18cd413039a6672808a0613d2cc3a9df9af5b064736f6c634300080b0033",
  "immutableReferences": {},
  "source": "/**\n *  @title Rock Paper Scissors Lizard Spock\n *  @author Clment Lesaege - <clement@lesaege.com>\n */\n\n/* This program is free software. It comes without any warranty, to\nthe extent permitted by applicable law. You can redistribute it\nand/or modify it under the terms of the Do What The Fuck You Want\nTo Public License, Version 2, as published by Sam Hocevar. See\nhttp://www.wtfpl.net/ for more details. */\n\n// SPDX-License-Identifier: MIT\npragma solidity >=0.4.22 <0.9.0;\n\ncontract RPS{\n    address payable public j1; // The first player creating the contract.\n    address payable public j2; // The second player.\n    enum Move {Null, Rock, Paper, Scissors, Spock, Lizard} // Possible moves. Note that if the parity of the moves is the same the lower one wins, otherwise the higher one.\n    bytes32 public c1Hash; // Commitment of j1.\n    Move public c2; // Move of j2. Move.Null before he played.\n    uint256 public stake; // Amout bet by each party.\n    //uint256 public TIMEOUT = 5 minutes; // If some party takes more than TIMEOUT to respond, the other can call TIMEOUT to win.\n    uint256 public TIMEOUT = 5 seconds; // If some party takes more than TIMEOUT to respond, the other can call TIMEOUT to win.\n    uint256 public lastAction; // The time of the last action. Usefull to determine if someone has timed out.\n\n    /** @dev Constructor. Must send the amount at stake when creating the contract. Note that the move and salt must be saved.\n     *  @param _c1Hash Must be equal to keccak256(c1,salt) where c1 is the move of the j1.\n     */\n    constructor(bytes32 _c1Hash,address payable _j2) payable {\n        stake = msg.value; // La mise correspond  la quantit d'ethers envoys.\n        j1=payable(msg.sender);\n        j2=_j2;\n        c1Hash=_c1Hash;\n        lastAction=block.timestamp;\n    }\n\n    /** @dev To be called by j2 and provided stake.\n     *  @param _c2 The move submitted by j2.\n     */\n    function play(Move _c2) public payable {\n        require(c2==Move.Null); // J2 has not played yet.\n        require(msg.value==stake); // J2 has paid the stake.\n        require(msg.sender==j2); // Only j2 can call this function.\n\n        c2=_c2;\n        lastAction=block.timestamp;\n    }\n\n    /** @dev To be called by j1. Reveal the move and send the ETH to the winning party or split them.\n     *  @param _c1 The move played by j1.\n     *  @param _salt The salt used when submitting the commitment when the constructor was called.\n     */\n     function solve(Move _c1, uint256 _salt) public payable {\n        require(c2!=Move.Null); // J2 must have played.\n        require(msg.sender==j1); // J1 can call this.\n        require(keccak256(abi.encodePacked(_c1,_salt))==c1Hash); // Verify the value is the commited one.\n\n        // If j1 or j2 throws at fallback it won't get funds and that is his fault.\n        // Despite what the warnings say, we should not use transfer as a throwing fallback would be able to block the contract, in case of tie.\n        if (win(_c1,c2))\n            j1.send(2*stake);\n        else if (win(c2,_c1))\n            j2.send(2*stake);\n        else {\n            j1.send(stake);\n            j2.send(stake);\n        }\n        stake=0;\n    }\n\n    /** @dev Let j2 get the funds back if j1 did not play.\n     */\n     function j1Timeout() public {\n        require(c2!=Move.Null); // J2 already played.\n        require(block.timestamp > lastAction + TIMEOUT); // Timeout time has passed.\n        j2.send(2*stake);\n        stake=0;\n    }\n\n    /** @dev Let j1 take back the funds if j2 never play.\n     */\n     function j2Timeout() public {\n        require(c2==Move.Null); // J2 has not played.\n        require(block.timestamp > lastAction + TIMEOUT); // Timeout time has passed.\n        j1.send(stake);\n        stake=0;\n    }\n\n    /** @dev Is this move winning over the other.\n     *  @param _c1 The first move.\n     *  @param _c2 The move the first move is considered again.\n     *  @return w True if c1 beats c2. False if c1 is beaten by c2 or in case of tie.\n     */\n     function win(Move _c1, Move _c2) private pure returns (bool w) {\n        if (_c1 == _c2)\n            return false; // They played the same so no winner.\n        else if (_c1==Move.Null)\n            return false; // They did not play.\n        else if (uint(_c1)%2==uint(_c2)%2)\n            return (_c1<_c2);\n        else\n            return (_c1>_c2);\n    }\n\n}\n\ncontract Hasher{\n    /** @dev Give the commitement. Must only be called locally.\n     *  @param _c The move.\n     *  @param _salt The salt to increase entropy.\n     */\n    function hash(uint8 _c, uint256 _salt) public pure returns(bytes32) {\n        return keccak256(abi.encodePacked(_c,_salt));\n    }\n}",
  "sourcePath": "/Users/tomislavkostantinov/rpsls/contracts/RPS.sol",
  "compiler": {
    "name": "solc",
    "version": "0.8.11+commit.d7f03943.Emscripten.clang"
  },
  "schemaVersion": "3.4.4",
  "updatedAt": "2022-02-14T20:00:19.497Z",
  "devdoc": {
    "kind": "dev",
    "methods": {
      "constructor": {
        "details": "Constructor. Must send the amount at stake when creating the contract. Note that the move and salt must be saved.",
        "params": {
          "_c1Hash": "Must be equal to keccak256(c1,salt) where c1 is the move of the j1."
        }
      },
      "j1Timeout()": {
        "details": "Let j2 get the funds back if j1 did not play."
      },
      "j2Timeout()": {
        "details": "Let j1 take back the funds if j2 never play."
      },
      "play(uint8)": {
        "details": "To be called by j2 and provided stake.",
        "params": {
          "_c2": "The move submitted by j2."
        }
      },
      "solve(uint8,uint256)": {
        "details": "To be called by j1. Reveal the move and send the ETH to the winning party or split them.",
        "params": {
          "_c1": "The move played by j1.",
          "_salt": "The salt used when submitting the commitment when the constructor was called."
        }
      }
    },
    "version": 1
  },
  "userdoc": {
    "kind": "user",
    "methods": {},
    "version": 1
  }
}